:020000040800F2
:100000008030002021020008953C0008953A000845
:10001000913C0008190D000845420008000000004E
:100020000000000000000000000000003302000893
:10003000350200080000000037020008553F0008A4
:100040003B0200083B0200083B0200083B0200089C
:100050003B0200083B0200083B0200083B0200088C
:100060003B0200083B0200083B0200083B0200087C
:100070003B0200083B0200083B0200083B0200086C
:100080003B0200083B0200083B0200083B0200085C
:100090003B0200083B0200083B0200083B0200084C
:1000A0003B0200083B0200083B0200083B0200083C
:1000B0003B0200083B0200083B0200083B0200082C
:1000C0003B0200083B0200083B0200083B0200081C
:1000D0003B0200083B020008FD4100083B0200080B
:1000E0003B0200083B0200083B0200083B020008FC
:1000F0003B020008000000003B0200083B02000831
:100100003B0200083B0200083B0200083B020008DB
:100110003B0200083B0200083B0200080000000010
:100120003B02000800F002F800F06AF80AA090E82C
:10013000000C82448344AAF10107DA4501D100F0A2
:100140005FF8AFF2090EBAE80F0013F0010F18BF05
:10015000FB1A43F001031847148F0000648F00005E
:100160000A444FF0000C10F8013B13F0070408BFDD
:1001700010F8014B1D1108BF10F8015B641E05D07B
:1001800010F8016B641E01F8016BF9D113F0080F30
:100190001EBF10F8014BAD1C0C1B09D16D1E58BFC2
:1001A00001F801CBFAD505E014F8016B01F8016BF9
:1001B0006D1EF9D59142D6D370470000103A24BF86
:1001C00078C878C1FAD8520724BF30C830C144BFBC
:1001D00004680C60704700000023002400250026FE
:1001E000103A28BF78C1FBD8520728BF30C148BF9A
:1001F0000B6070471FB500F0EFF81FBD10B510BDC4
:1002000000F0E9F91146FFF7F5FF07F03BF900F0C0
:1002100007FA03B4FFF7F2FF03BC00F0CFF90000C8
:100220000948804709480047FEE7FEE7FEE7FEE78A
:10023000FEE7FEE7FEE7FEE7FEE7FEE704480549C6
:10024000054A064B70470000E93F000825010008F9
:10025000801E002080300020802000208020002090
:1002600053EA020C00F069802DE9F04B4FF00006D4
:10027000002B1FBFB3FA83F503FA05F424FA05F641
:100280005E4012BF1643B2FA82F502FA05F4C5F1D8
:1002900020051EBF22FA05FC44EA0C04203556EA6C
:1002A000044C4FEA144418BF641C4FF000084FF090
:1002B0000009904271EB030C39D3002919BFB1FA40
:1002C00081F701FA07F6B0FA80F700FA07F6C7F1EE
:1002D00020071EBF20FA07FC46EA0C062037B6FBB3
:1002E000F4FCA7EB0507103F07F01F0BCBF120062E
:1002F0002CFA06F60CFA0BFB44BFB3460026202F5F
:10030000A4BF5E464FF0000B5BEA060C08BF4FF03F
:10031000010B19EB0B0948EB0608ABFB027C06FB53
:1003200002CC0BFB03CCC01B71EB0C01C1E70B46ED
:10033000024641464846BDE8F08B13B5084318BF56
:100340004FF0FF300146AFF30080BDE81C4070471E
:100350000EB5054614460E4613A000F0C5F8284613
:1003600000F0C2F816A000F0BFF8304600F0BCF86C
:1003700015A000F0B9F800218DF80B100A210DF13D
:100380000A008DF80A1008E094FBF1F201FB12421A
:1003900094FBF1F4303200F8012D002CF4DC00F075
:1003A000A3F800F096F800002A2A2A2061737365EA
:1003B0007274696F6E206661696C65643A20000032
:1003C0002C2066696C6520002C206C696E6520000D
:1003D000704770477047000070B5064C7C44064D6E
:1003E0007D4404E02046016808448047241DAC4257
:1003F000F8D170BDDC8C0000E48C00007047000078
:1004000000010200032A40F2308010F0030C00F0DB
:10041000158011F8013BBCF1020F624498BF11F83E
:1004200001CB00F8013B38BF11F8013BA2F10402F7
:1004300098BF00F801CB38BF00F8013B11F003036F
:1004400000F05C80083AC0F0088051F8043B083A9C
:1004500051F804CBA0E80810F5E7121D5CBF51F875
:10046000043B40F8043BAFF30080D20724BF11F8EF
:10047000013B11F801CB48BF11F8012B24BF00F854
:10048000013B00F801CB48BF00F8012B70474FF04B
:1004900000020429C0F0128010F0030C00F062800A
:1004A000CCF1040CBCF1020F18BF00F8012BA8BF5F
:1004B00020F8022BA1EB0C0100F054B85FEAC17CDC
:1004C00024BF00F8012B00F8012B48BF00F8012BD6
:1004D000704710B5002000F077F8FFF78FFEBDE8F9
:1004E0001040012000F06AB810B5044602E0641C18
:1004F00000F05DF820780028F9D110BD10B5203A41
:10050000C0F00B80B1E81850A0E81850B1E81850BE
:10051000A0E81850203ABFF4F5AF5FEA027C24BF90
:10052000B1E81850A0E8185044BF18C918C0BDE879
:1005300010405FEA827C24BF51F8043B40F8043B42
:1005400008BF7047D20728BF31F8023B48BF11F8F7
:10055000012B28BF20F8023B48BF00F8012B704751
:100560004FF0000200B5134694469646203922BF4C
:10057000A0E80C50A0E80C50B1F12001BFF4F7AF97
:10058000090728BFA0E80C5048BF0CC05DF804EB79
:10059000890028BF40F8042B08BF704748BF20F8E7
:1005A000022B11F0804F18BF00F8012B704708B5DF
:1005B00069468DF800000320ABBE08BD0149182034
:1005C000ABBEFEE72600020010B500F037F8BDE82C
:1005D000104000F02EB8754600F048F8AE46050011
:1005E0006946534620F00700854618B020B5FFF74E
:1005F00025FEBDE820404FF000064FF000074FF009
:1006000000084FF0000BAC46ACE8C009ACE8C009EC
:10061000ACE8C009ACE8C00921F007018D4670477D
:1006200010B50446AFF300802046BDE81040FFF748
:10063000F0BD002801D0FFF7C1BF704710B5002101
:1006400002A000F017F8012010BD000053494741F7
:100650004252543A2041626E6F726D616C20746533
:10066000726D696E6174696F6E00000000487047BA
:100670008007002070B505460C460A2000E06D1C7E
:10068000FFF795FF35B128780028F8D102E0641C07
:10069000FFF78DFF14B120780028F8D1BDE8704035
:1006A0000A20FFF784BF000080B582B001208DF8DA
:1006B000070041F63060C2F2000003F053F8A8B31F
:1006C000FFE741F63060C2F2000000680068C00732
:1006D00058BBFFE741F63060C2F2000000680068D6
:1006E00000F004010020B0EB910F1ED1FFE741F6AE
:1006F0003060C2F200000068006800F008010020CD
:10070000B0EBD10F11D1FFE741F63060C2F200002B
:100710000068006800F002010020B0EB510F04D126
:10072000FFE700208DF80700FFE7FFE79DF80700CF
:1007300002B080BD80B584B000208DF80F0041F676
:100740003060C2F200000168C9680291016809685E
:10075000019103F007F840B3FFE79DF80800000699
:10076000002804D5FFE701208DF80F001CE09DF85C
:1007700008008006002804D5FFE702208DF80F004E
:1007800011E041F63060C2F2000000680068000726
:10079000002804D5FFE703208DF80F0002E007F0E2
:1007A00075F8FFE7FFE7FFE7FFE79DF80F0004B0EC
:1007B00080BD000080B592B00020119010900F9085
:1007C0000E900D90FFE743F61C00C4F20200016892
:1007D00041F004010160006800F004000C900C98E6
:1007E000FFE7FFE743F61C00C4F20200016841F096
:1007F00020010160006800F020000B900B98FFE7DB
:10080000FFE743F61C00C4F20200016841F0010159
:100810000160006800F001000A900A98FFE7FFE716
:1008200043F61C00C4F20200016841F002010160BD
:10083000006800F0020009900998FFE7FFE743F61F
:100840001C00C4F20200016841F008010160006868
:1008500000F0080008900898FFE70020079011902A
:1008600010900F900E900D90032100910E910F901B
:1008700043F6FF700D9040F60000C4F202000590B0
:100880000DA9069101F008F9009806990D9041F222
:100890000040C4F2020001F0FFF8069949F6FF702B
:1008A0000D900020C4F20200029001F0F5F80699C4
:1008B0004FF6FF700D9040F20040C4F2020001902C
:1008C00001F0EAF8069904200D9040F60040C4F2C9
:1008D000020001F0E1F80298079A119210920F922B
:1008E0000E920D92012104910E910F9210924FF4ED
:1008F0001C610D91BDF8341001F0C2FB0298049AFE
:100900004021039101F0BCFB0298069901F0C4F864
:10091000049A05984FF4E0510D91BDF8341001F0A0
:10092000AFFB0598069901F0B7F80198079A4FF4C4
:1009300020710D91BDF8341001F0A2FB0198049ACA
:10094000802101F09DFB0198069901F0A5F801981E
:10095000039B0699079A119210920F920E920D9294
:100960000D930E920F9201F097F804990598079A4B
:10097000119210920F920E920D920E910F920221EF
:1009800010914FF467710D91BDF8341001F078FBB0
:100990000598069901F080F802980699079A119235
:1009A00010920F920E920D924FF480630D930E925F
:1009B0000F9201F071F8039B049A059806990D9324
:1009C0000F9201F069F8079812B080BD80B582B02F
:1009D00001208DF8070001F037FC03F0C3FA01286D
:1009E00016D0FFE747F20400C4F200000068800759
:1009F000002809D5FFE747F20001C4F200010868AA
:100A000040F00C000860FFE700208DF80700FFE7CA
:100A1000FFF7D0FEFFE743F62400C4F202000168AE
:100A200041F080510160006800F080500090009813
:100A3000FFE747F20400C4F20000006880070028C6
:100A400009D5FFE747F20001C4F20001086840F051
:100A50000C000860FFE79DF8070002B080BD0000B1
:100A600080B586B0059004910392029301208DF821
:100A7000070041F63060C2F2000002F073FE28BBAE
:100A8000FFE741F63060C2F20000009044F20041FE
:100A9000C4F2000101600C21416100218161059ACD
:100AA0004260039A0261029A8260049AC260C16144
:100AB00002F06CFE20B9FFE700208DF80700FFE789
:100AC00026200721002201F0ABFCFFE79DF807007C
:100AD00006B080BD80B582B08DF807009DF8070094
:100AE00001460091D8B1FFE70098012804D0FFE744
:100AF0000098022809D011E040F60000C4F202007C
:100B00000C21012201F0BCFA0AE040F60000C4F218
:100B100002000C21002201F0B3FA01E0FFE7FFE739
:100B200002B080BD80B582B001208DF8070041F68B
:100B30003060C2F2000002F015FE68B1FFE741F636
:100B40003060C2F2000002F0A5FD20B9FFE70020EE
:100B50008DF80700FFE7FFE79DF8070002B080BDB2
:100B600080B582B08DF807009DF8072040F60000A0
:100B7000C4F20200102101F083FA02B080BD00002F
:100B800080B582B000208DF8070041F63060C2F2D7
:100B9000000002F0E7FD48B1FFE741F63060C2F225
:100BA0000000006840688DF80700FFE79DF8070027
:100BB00002B080BD80B582B001208DF8070041F6FB
:100BC0003060C2F2000002F0CDFD68B1FFE741F6EF
:100BD0003060C2F200000168C86820F02000C860E0
:100BE00000208DF80700FFE79DF8070002B080BDE8
:100BF00080B582B001208DF8070041F63060C2F266
:100C0000000002F0AFFD88B1FFE741F63060C2F2AC
:100C1000000002686FF0200111600168C86840F0B0
:100C20002000C86000208DF80700FFE79DF807004E
:100C300002B080BD80B582B001208DF8070041F67A
:100C40003060C2F2000002F08DFD60B1FFE741F6B6
:100C50003060C2F2000001686FF0200008600020E0
:100C60008DF80700FFE79DF8070002B080BD000087
:100C700080B582B08DF8070041F63060C2F2000006
:100C800002F070FD48B1FFE79DF8070041F63061C2
:100C9000C2F2000109684860FFE702B080BD0000B1
:100CA00080B582B001208DF8070041F63060C2F2B5
:100CB000000002F057FD68B1FFE741F63060C2F274
:100CC00000000168C86820F08000C86000208DF82E
:100CD0000700FFE79DF8070002B080BD80B582B035
:100CE00001208DF8070041F63060C2F2000002F0EA
:100CF00039FD68B1FFE741F63060C2F200000168DB
:100D0000C86840F08000C86000208DF80700FFE749
:100D10009DF8070002B080BDFFE7FEE780B582B016
:100D200001908DF8031000208DF802000198002139
:100D3000C0F60801884209D3FFE7019843F6FF7126
:100D4000C0F60801884201D8FFE708E048F6906045
:100D5000C0F6000040F2FE5104F0A4FDFFE74CF2A3
:100D6000503000F0EDF98DF802009DF8020098B9BE
:100D7000FFE743F60441C4F20201086820F48070E2
:100D800008609DF80300019908704CF2503000F0A3
:100D9000D7F98DF80200FFE79DF8020002B080BD90
:100DA00080B582B00190ADF8021000208DF80100EE
:100DB00001980021C0F60801884209D3FFE7019895
:100DC00043F6FF71C0F60801884201D8FFE708E04A
:100DD00048F69060C0F6000040F23A6104F062FD0F
:100DE000FFE74CF2503000F0ABF98DF801009DF8B0
:100DF000010098B9FFE743F60441C4F20201086814
:100E000020F480700860BDF80200019908804CF25F
:100E1000503000F095F98DF80100FFE79DF80100D2
:100E200002B080BD80B584B00390029100208DF89F
:100E3000070003980021C0F60801884209D3FFE7A4
:100E4000039843F6FF71C0F60801884201D8FFE716
:100E500008E048F69060C0F6000040F27B6104F0C4
:100E600021FDFFE74CF2503000F06AF98DF80700E1
:100E70009DF8070090B9FFE743F60441C4F2020170
:100E8000086820F4807008600298039908604CF2AA
:100E9000503000F055F98DF80700FFE79DF8070086
:100EA00004B080BD80B582B001908DF803100020A1
:100EB0008DF8020001980021C0F60801884209D38C
:100EC000FFE7019843F6FF71C0F60801884201D898
:100ED000FFE708E048F69060C0F6000040F29D6130
:100EE00004F0E0FCFFE74CF2503000F029F98DF8F7
:100EF00002009DF8020058B9FFE79DF80300019930
:100F000008704CF2503000F01BF98DF80200FFE73A
:100F10009DF8020002B080BD80B582B00190ADF8AE
:100F2000021000208DF8010001980021C0F6080190
:100F3000884209D3FFE7019843F6FF71C0F6080124
:100F4000884201D8FFE708E048F69060C0F600004C
:100F500040F2D36104F0A6FCFFE74CF2503000F001
:100F6000EFF88DF801009DF8010058B9FFE7BDF8D2
:100F70000200019908804CF2503000F0E1F88DF841
:100F80000100FFE79DF8010002B080BD80B584B08C
:100F90000390029100208DF8070003980021C0F60D
:100FA0000801884209D3FFE7039843F6FF71C0F6B2
:100FB0000801884201D8FFE708E048F69060C0F6D3
:100FC000000040F20D7104F06DFCFFE74CF2503070
:100FD00000F0B6F88DF807009DF8070050B9FFE75C
:100FE0000298039908604CF2503000F0A9F88DF88F
:100FF0000700FFE79DF8070004B080BD81B00090B6
:1010000041F6CC31C2F200010020486143F60441B0
:10101000C4F20201086840F400700860086840F0FB
:1010200008000860009820F0FF014FF0FF300860D2
:10103000FFE743F61840C4F202000068C00710B191
:10104000FFE700BFF5E701B07047000081B0002066
:10105000009043F61840C4F202000068C005002862
:101060000DD5FFE741F6CC31C2F20001486940F0EE
:1010700002004861009840F480700090FFE743F65A
:101080001840C4F202000068800500280DD5FFE773
:1010900041F6CC31C2F20001486940F001004861DC
:1010A000009840F400700090FFE743F61840C4F247
:1010B00002000068000500280DD5FFE741F6CC319D
:1010C000C2F20001486940F004004861009840F411
:1010D00000600090FFE743F61840C4F20200006889
:1010E000C00400280DD5FFE741F6CC31C2F2000163
:1010F000486940F020004861009840F4805000901A
:10110000FFE743F61840C4F20200006840050028DB
:101110000DD5FFE741F6CC31C2F20001486940F03D
:1011200008004861009840F480600090FFE7009854
:1011300043F61841C4F20201086001B07047000094
:1011400080B584B0029000F0D7FF0190FFE743F62E
:101150001840C4F202000068C007A8B1FFE7029877
:10116000013080B1FFE7029840B1FFE700F0C4FF13
:101170000199401A0299884204D9FFE703208DF8AB
:101180000F0050E0FFE7E2E743F61840C4F2020028
:1011900000688007002807D5FFE743F61841C4F22E
:1011A000020102200860FFE743F61840C4F2020083
:1011B000006800F48070B0F5807F2AD0FFE743F626
:1011C0001840C4F20200006800F40060B0F5006F3F
:1011D0001FD0FFE743F61840C4F20200006800F495
:1011E0008050B0F5805F14D0FFE743F61840C4F29A
:1011F0000200006800F48060B0F5806F09D0FFE75E
:1012000043F61840C4F2020000688005002806D5A5
:10121000FFE7FFF71BFF01208DF80F0003E0002020
:101220008DF80F00FFE79DF80F0004B080BD0000AF
:1012300080B584B00390029100208DF807000398D8
:1012400040B1FFE70398012804D0FFE70398022884
:1012500001D1FFE708E048F69060C0F6000040F2D8
:101260001B3104F01FFBFFE702980021C0F60801C4
:10127000884209D3FFE7029843F6FF71C0F60801E0
:10128000884201D8FFE708E048F69060C0F6000009
:101290004FF4477104F006FBFFE74CF25030FFF7C4
:1012A0004FFF8DF807009DF8070020BBFFE741F6D0
:1012B000CC31C2F20001002048610398022804D119
:1012C000FFE7029900200860FFE70398012804D196
:1012D000FFE7029900200880FFE7039820B9FFE7A5
:1012E000029900200870FFE74CF25030FFF728FF0A
:1012F0008DF80700FFE79DF8070004B080BD0000EF
:1013000043F60441C4F20201086840F0010008609D
:101310000020704780B586B00490039102920120AE
:101320008DF80700FFE741F6CC30C2F20000007CE8
:10133000012804D1FFE702208DF8170095E041F65F
:10134000CC31C2F2000101200874FFE7FFE70498E6
:10135000A0B1FFE70498012810D0FFE70498022805
:101360000CD0FFE70498042808D0FFE70498082869
:1013700004D0FFE70498102801D1FFE708E048F601
:101380009060C0F600004FF4567104F08BFAFFE74E
:101390004CF25030FFF7D4FE8DF807009DF807009F
:1013A000002855D1FFE741F6CC31C2F20001002000
:1013B00048610498022807D1FFE703980299FFF7D4
:1013C000E5FD8DF8070042E00498012808D1FFE709
:1013D0000398BDF80810FFF79FFD8DF8070035E072
:1013E000049840B9FFE703989DF80810FFF75AFDED
:1013F0008DF8070029E00498042808D1FFE7039836
:101400009DF80810FFF78AFC8DF807001CE004988F
:10141000082808D1FFE70398BDF80810FFF7C0FCC3
:101420008DF807000FE00498102807D1FFE7039814
:101430000299FFF7F7FC8DF8070003E001208DF813
:101440000700FFE7FFE7FFE7FFE7FFE7FFE7FFE74B
:10145000FFE741F6CC31C2F2000100200874FFE73B
:101460009DF807008DF81700FFE79DF8170006B0FC
:1014700080BD000081B043F60440C4F20200006861
:10148000C00778B1FFE743F60C41C4F202014CF605
:10149000EF50C8F6AB10086040F20540C0F20320E0
:1014A000086003E001208DF8030003E000208DF8C0
:1014B0000300FFE79DF8030001B0704780B586B0D8
:1014C0000490039101208DF80B0000200190FFE7AC
:1014D00041F6CC30C2F20000007C012804D1FFE7C5
:1014E00002208DF81700B1E041F6CC31C2F20001C4
:1014F00001200874FFE7FFE74CF25030FFF720FEB1
:101500008DF80B009DF80B00002840F09280FFE75B
:1015100003994FF0FF3008600498806838B1FFE706
:1015200004988068B0F5006F01D8FFE707E048F63F
:101530009060C0F60000CC2104F0B4F9FFE70498F5
:10154000006808B9FFE707E048F69060C0F60000C1
:10155000CD2104F0A7F9FFE704984068B0F1006FCF
:101560000AD3FFE7049840684FF6FF71C0F6070101
:10157000884201D8FFE707E048F69060C0F6000017
:10158000CE2104F08FF9FFE704994868896820F0BC
:10159000FF0000EB01200138B0F1006F10D3FFE72E
:1015A00004994868896820F0FF0000EB01200138A9
:1015B0004FF6FF71C0F60701884201D8FFE707E048
:1015C00048F69060C0F60000CF2104F06BF9FFE709
:1015D000049840680190FFE70198049A5168926866
:1015E00001EB0221884223D2FFE70198FFF706FDB5
:1015F0004CF25030FFF7A4FD8DF80B0043F6044188
:10160000C4F20201086820F008000860086820F4AD
:10161000007008609DF80B0020B1FFE70198039966
:10162000086005E0FFE7019800F580700190D3E7BE
:10163000FFE7FFE741F6CC31C2F200010020087459
:10164000FFE79DF80B008DF81700FFE79DF81700E6
:1016500006B080BD43F60441C4F20201086840F0C0
:10166000020008600020704780B586B004900391A6
:10167000029201208DF80700FFE741F6CC30C2F25C
:101680000000007C012804D1FFE702208DF817003C
:1016900051E041F6CC31C2F2000101200874FFE7AD
:1016A000FFE70498022801D1FFE707E048F6D06081
:1016B000C0F60000EF2104F0F5F8FFE70398B0F161
:1016C000006F09D3FFE703984FF6FF71C0F60701DB
:1016D000884201D8FFE707E048F6D060C0F6000076
:1016E000F02104F0DFF8FFE74CF25030FFF728FD5F
:1016F0008DF807009DF8070080B9FFE741F6CC316F
:10170000C2F20001002048610298039908604CF27F
:101710005030FFF715FD8DF80700FFE7FFE741F6B2
:10172000CC31C2F2000100200874FFE79DF80700E9
:101730008DF81700FFE79DF8170006B080BD000088
:1017400081B043F60440C4F202000068800700281C
:101750003FD5FFE743F60440C4F202000068C0072B
:10176000D8B1FFE743F60C41C4F202014CF6EF504A
:10177000C8F6AB10086040F20540C0F203200860D4
:1017800043F60440C4F202000068C00720B1FFE73E
:1017900001208DF8030020E0FFE743F61041C4F27A
:1017A00002014AF6BF60C8F69D40086041F216503B
:1017B000C1F21430086043F60440C4F2020000682D
:1017C0008007002804D5FFE701208DF8030004E01E
:1017D000FFE700208DF80300FFE79DF8030001B04C
:1017E0007047000080B58CB00B900A9100200990E2
:1017F000089007900B980021C4F20201884238D06B
:10180000FFE70B9840F20041C4F20201884230D059
:10181000FFE70B9840F60001C4F20201884228D08D
:10182000FFE70B9840F60041C4F20201884220D045
:10183000FFE70B9841F20001C4F20201884218D080
:10184000FFE70B9841F60001C4F20201884210D074
:10185000FFE70B9841F60041C4F20201884208D02C
:10186000FFE70B9841F20041C4F20201884201D126
:10187000FFE708E048F60D70C0F600004FF49A71DB
:1018800004F010F8FFE7BDF8280028B1FFE7BDF825
:101890002A0008B9FFE708E048F60D70C0F600001E
:1018A00040F2351103F0FEFFFFE7FFE70A980999C0
:1018B000C840002800F0EE80FFE70A98099A01214D
:1018C0009140084008900898002800F0DF80FFE76A
:1018D000099820F003000821C4F201014058079044
:1018E000099800F0030081000F2000FA01F1079829
:1018F00008400790079806900B980021C4F2020157
:10190000884203D1FFE70020059050E00B9840F299
:101910000041C4F20201884203D1FFE70120049094
:1019200042E00B9840F60001C4F20201884203D164
:10193000FFE70220039034E00B9840F60041C4F228
:101940000201884203D1FFE70320029026E00B98B2
:1019500041F20001C4F20201884203D1FFE70420F2
:10196000019018E00B9841F20041C4F20201884254
:1019700003D1FFE7052000900AE00B9941F6000231
:10198000C4F202020720914208BF06200090FFE740
:1019900000980190FFE701980290FFE702980390FA
:1019A000FFE703980490FFE704980590FFE7069887
:1019B0000599099A02F0030292009140884232D1BF
:1019C000FFE7089A40F20041C4F201010868904321
:1019D0000860089A40F20441C4F20101086890438B
:1019E0000860089A40F20841C4F201010868904377
:1019F0000860089A40F20C41C4F201010868904363
:101A00000860099800F0030081000F2088400790CB
:101A1000079B099820F003010822C4F201028858AC
:101A200098438850FFE709984100032000FA01F32A
:101A30000B9A116899431160DDF824C00CF007017E
:101A40008A000F2101FA02F30B996FF0030202EAF8
:101A50005C020A44116A994311620999490000FA2B
:101A600001F30B9AD1689943D160099A012101FAD7
:101A700002F30B9A5168994351600999490000FAA1
:101A800001F20B99886890438860FFE7099801305C
:101A900009900BE70CB080BD80B58CB00B900A911B
:101AA00000200990089007900B980021C4F20201D1
:101AB000884238D0FFE70B9840F20041C4F202019F
:101AC000884230D0FFE70B9840F60001C4F20201D3
:101AD000884228D0FFE70B9840F60041C4F202018B
:101AE000884220D0FFE70B9841F20001C4F20201C6
:101AF000884218D0FFE70B9841F60001C4F20201BA
:101B0000884210D0FFE70B9841F60041C4F2020171
:101B1000884208D0FFE70B9841F20041C4F202016D
:101B2000884201D1FFE707E048F60D70C0F60000DB
:101B3000B12103F0B7FEFFE70A98008828B1FFE75C
:101B40000A98408808B9FFE707E048F60D70C0F62C
:101B50000000B22103F0A6FEFFE70A984068E8B350
:101B6000FFE70A984068012838D0FFE70A984068E4
:101B7000112833D0FFE70A98406802282ED0FFE7EB
:101B80000A984068122829D0FFE70A984068B0F503
:101B9000881F23D0FFE70A984068B0F5041F1DD0C6
:101BA000FFE70A984068B0F5441F17D0FFE70A988E
:101BB0004068B0F5901F11D0FFE70A984068B0F573
:101BC000081F0BD0FFE70A984068B0F5481F05D002
:101BD000FFE70A984068032801D1FFE707E048F6CD
:101BE0000D70C0F60000B32103F05CFEFFE7FFE7D5
:101BF0000A9800680999C840002800F03E82FFE773
:101C00000A980068099A01219140084008900898B4
:101C1000002800F02E82FFE70A98406800F00300D9
:101C2000012807D0FFE70A98406800F00300022867
:101C30004BD1FFE70A98C06878B1FFE70A98C068FF
:101C400001280AD0FFE70A98C068022805D0FFE7FC
:101C50000A98C068032801D1FFE707E048F60D7035
:101C6000C0F60000C32103F01DFEFFE70B9880685B
:101C7000079009984100032000FA01F10798884372
:101C800007900A98C0680999490000FA01F107987D
:101C90000843079007980B9988600B984068079055
:101CA0000999012000FA01F10798884307900A98E2
:101CB0004068C0F30010099900FA01F10798084341
:101CC000079007980B994860FFE70A98406800F072
:101CD000030003282FD0FFE70A98806850B1FFE780
:101CE0000A988068012805D0FFE70A9880680228D2
:101CF00001D1FFE707E048F60D70C0F60000D421DF
:101D000003F0D0FDFFE70B98C068079009984100E9
:101D1000032000FA01F10798884307900A98806829
:101D20000999490000FA01F10798084307900798BC
:101D30000B99C860FFE70A98406800F0030002288A
:101D40007CD1FFE70B980021C4F20201884238D011
:101D5000FFE70B9840F20041C4F20201884230D004
:101D6000FFE70B9840F60001C4F20201884228D038
:101D7000FFE70B9840F60041C4F20201884220D0F0
:101D8000FFE70B9841F20001C4F20201884218D02B
:101D9000FFE70B9841F60001C4F20201884210D01F
:101DA000FFE70B9841F60041C4F20201884208D0D7
:101DB000FFE70B9841F20041C4F20201884201D1D1
:101DC000FFE707E048F60D70C0F60000E12103F0E0
:101DD00069FDFFE70A9800690F2801D8FFE707E0CF
:101DE00048F60D70C0F60000E22103F05BFDFFE74E
:101DF0000B9809996FF0030202EA51010844006A46
:101E00000790099800F0070081000F2000FA01F107
:101E10000798884307900A980069099901F007011B
:101E2000890000FA01F107980843079007980B9979
:101E3000099B02EA530211440862FFE70B9800680D
:101E4000079009984100032000FA01F107988843A0
:101E500007900A98406800F003000999490000FAC9
:101E600001F107980843079007980B9908600A98B2
:101E700080798007002800F0FB80FFE7FFE743F64A
:101E80002000C4F20200016841F001010160006815
:101E900000F0010006900698FFE7099820F0030083
:101EA0000821C4F2010140580790099800F003008E
:101EB00081000F2000FA01F10798884307900B98E2
:101EC0000021C4F20201884203D1FFE700200590FF
:101ED00050E00B9840F20041C4F20201884203D165
:101EE000FFE70120049042E00B9840F60001C4F2A5
:101EF0000201884203D1FFE70220039034E00B98EF
:101F000040F60041C4F20201884203D1FFE70320FA
:101F1000029026E00B9841F20001C4F202018842CF
:101F200003D1FFE70420019018E00B9841F2004133
:101F3000C4F20201884203D1FFE7052000900AE0C5
:101F40000B9941F60002C4F202020720914208BF39
:101F500006200090FFE700980190FFE701980290AB
:101F6000FFE702980390FFE703980490FFE70498C7
:101F70000590FFE70598099901F00301890000FA2F
:101F800001F10798084307900798099921F0030188
:101F90000822C4F20102885040F20040C4F201005D
:101FA0000068079008990798884307900A988079F5
:101FB000C00728B1FFE70899079808430790FFE793
:101FC000079840F20041C4F20101086040F2044069
:101FD000C4F20100006807900899079888430790A9
:101FE0000A9880798007002805D5FFE708990798A7
:101FF00008430790FFE7079840F20441C4F201014B
:10200000086040F20840C4F2010000680790089997
:102010000798884307900A988079C006002805D55C
:10202000FFE70899079808430790FFE7079840F2F1
:102030000841C4F20101086040F20C40C4F2010002
:102040000068079008990798884307900A98807954
:102050008006002805D5FFE70899079808430790F0
:10206000FFE7079840F20C41C4F201010860FFE766
:10207000FFE7099801300990BAE50CB080BD000077
:1020800080B582B00190ADF802108DF80120BDF846
:10209000020020B1FFE7002008B9FFE708E048F69A
:1020A0000D70C0F600004FF4D07103F0FBFBFFE7AA
:1020B0009DF8010028B1FFE79DF80100012801D13A
:1020C000FFE708E048F60D70C0F6000040F2A111ED
:1020D00003F0E8FBFFE79DF8010028B1FFE7BDF83A
:1020E00002000199886105E0BDF802000004019931
:1020F0008861FFE702B080BD41F61040C2F20000E7
:102100000068704780B584B00290029820B9FFE75C
:1021100001208DF80F0084E00298006843F200016E
:10212000C4F20001884201D1FFE707E048F685705C
:10213000C0F60000AF2103F0B5FBFFE7029840684E
:10214000F0B1FFE702984068012819D0FFE7029834
:102150004068022814D0FFE70298406803280FD097
:10216000FFE70298406804280AD0FFE70298406819
:10217000052805D0FFE702984068062801D1FFE74F
:1021800007E048F68570C0F60000B02103F08AFB36
:10219000FFE7029881680020B0EB113F01D1FFE713
:1021A00007E048F68570C0F60000B12103F07AFB25
:1021B000FFE7029801684CF6CC400860029801687D
:1021C00045F25550086002980168406848600298DE
:1021D000016880688860FFF78FFF0190FFE7029831
:1021E0000068C068800798B1FFE7FFF785FF019995
:1021F000401A2B280BD3FFE702980068C0688007BD
:1022000020B1FFE703208DF80F000AE0FFE7E6E7C3
:10221000029801684AF6AA20086000208DF80F0095
:10222000FFE79DF80F0004B080BD000040F274701D
:10223000C2F20000026841F61041C2F200010868D3
:10224000104408607047000080B582B000208DF80F
:102250000700032000F018F90F2000F00DF820B15E
:10226000FFE701208DF8070002E000F049F8FFE7E2
:102270009DF8070002B080BD80B582B001900020BB
:102280008DF8030040F27470C2F20000006878B369
:10229000FFE740F20010C2F20000006840F27471E3
:1022A000C2F200010A684FF47A71B1FBF2F1B0FB9F
:1022B000F1F001F0E7F9B0B9FFE701980F280DD868
:1022C000FFE701994FF0FF30002200F0A9F80198D4
:1022D00040F27871C2F20001086003E001208DF83D
:1022E0000300FFE703E001208DF80300FFE703E0B0
:1022F00001208DF80300FFE79DF8030002B080BDC8
:1023000080B586B0FFE743F62400C4F202000168FE
:1023100041F000410160006800F000400590059820
:10232000FFE7FFE743F62000C4F20200016841F036
:1023300001010160006800F0010004900498FFE7CB
:10234000FFE743F62400C4F20200016841F0805127
:102350000160006800F0805003900398FFE70320BD
:1023600000F092F86FF00B0000220292114600F08C
:1023700057F8029A6FF00A00114600F051F8029ADD
:102380006FF00900114600F04BF8029A6FF004005C
:10239000114600F045F8029A6FF00300114600F074
:1023A0003FF8029A6FF001000F21019100F038F818
:1023B0000199029A4FF0FF3000F032F806B080BD6C
:1023C00080B582B08DF807009DF90700002801D480
:1023D000FFE707E048F65260C0F60000E82103F08E
:1023E00061FAFFE79DF9070001F056FC02B080BDDD
:1023F00080B582B08DF807009DF90700002801D450
:10240000FFE707E048F65260C0F60000D82103F06D
:1024100049FAFFE79DF9070001F050FC02B080BDCA
:1024200080B586B08DF817000491039200200290C9
:1024300003980F2801D8FFE707E048F65260C0F67E
:102440000000C42103F02EFAFFE704980F2801D8FA
:10245000FFE707E048F65260C0F60000C52103F030
:1024600021FAFFE701F072FC02909DF9170001903C
:1024700002980499039A01F033FC0146019801F097
:102480006DFC06B080BD000080B582B0019001985F
:10249000072810D0FFE7019806280CD0FFE7019825
:1024A000052808D0FFE70198042804D0FFE7019829
:1024B000032801D1FFE707E048F65260C0F60000AC
:1024C000AC2103F0EFF9FFE7019801F069FC02B0DD
:1024D00080BD000080B501F081FC80BD80B586B074
:1024E00004900391049820B9FFE701208DF81700AC
:1024F00047E2039820B1FFE70398012801D1FFE7E5
:1025000008E048F61760C0F6000040F22A3103F0F8
:10251000C9F9FFE7039843F60041C4F202010968D4
:1025200001F00101884229D9FFE7FFE7039801285C
:1025300009D1FFE743F60041C4F20201086840F008
:1025400004000860FFE743F60041C4F20201086896
:1025500020F00100039A10430860FFE743F60040B3
:10256000C4F20200006800F001000399884204D020
:10257000FFE701208DF8170003E2FFE704980078D9
:102580008007002842D5FFE70498806840B3FFE742
:1025900004988068802823D0FFE7049880689028FA
:1025A0001ED0FFE704988068A02819D0FFE70498A0
:1025B0008068B02814D0FFE704988068C0280FD046
:1025C000FFE704988068D0280AD0FFE70498806865
:1025D000E02805D0FFE704988068F02801D1FFE7E4
:1025E00008E048F61760C0F6000040F2413103F001
:1025F00059F9FFE743F60801C4F20201086820F028
:10260000F000049A926810430860FFE7049800788D
:10261000C007002800F0EE80FFE70498406878B11A
:10262000FFE70498406801280AD0FFE70498406853
:10263000022805D0FFE704984068032801D1FFE78E
:1026400008E048F61760C0F600004FF4527103F03E
:1026500029F9FFE70498406802280ED1FFE743F606
:102660000000C4F2020000688003002804D4FFE7E1
:1026700001208DF8170084E135E0049840680328B4
:102680000ED1FFE743F60000C4F2020000688001AB
:10269000002804D4FFE701208DF8170071E121E044
:1026A0000498406801280ED1FFE743F60000C4F209
:1026B000020000688007002804D4FFE701208DF89D
:1026C00017005EE10DE043F60000C4F2020000686E
:1026D0008005002804D4FFE701208DF8170050E1A1
:1026E000FFE7FFE7FFE743F60801C4F202010868CD
:1026F00020F00300049A526810430860FFF7FCFCC6
:1027000002900498406802281AD1FFE7FFE743F6D9
:102710000800C4F20200006800F00C0008280ED087
:10272000FFE7FFF7E9FC0299401A41F2893188423C
:1027300004D3FFE703208DF8170022E1E7E758E014
:102740000498406803281AD1FFE7FFE743F6080022
:10275000C4F20200006800F00C000C280ED0FFE765
:10276000FFF7CAFC0299401A41F28931884204D32A
:10277000FFE703208DF8170003E1E7E738E004984E
:10278000406801281AD1FFE7FFE743F60800C4F2CA
:102790000200006800F00C0004280ED0FFE7FFF7ED
:1027A000ABFC0299401A41F28931884204D3FFE719
:1027B00003208DF81700E4E0E7E718E0FFE743F6B1
:1027C0000800C4F20200006810F00C0F0ED0FFE702
:1027D000FFF792FC0299401A41F28931884204D3F2
:1027E000FFE703208DF81700CBE0E8E7FFE7FFE7FE
:1027F000FFE7FFE7039843F60041C4F202010968CE
:1028000001F00101884229D2FFE7FFE70398012880
:1028100009D1FFE743F60041C4F20201086840F025
:1028200004000860FFE743F60041C4F202010868B3
:1028300020F00100039A10430860FFE743F60040D0
:10284000C4F20200006800F001000399884204D03D
:10285000FFE701208DF8170093E0FFE70498007868
:102860004007002832D5FFE70498C068C0B1FFE7F1
:102870000498C068B0F5806F12D0FFE70498C06874
:10288000B0F5A06F0CD0FFE70498C068B0F5C06F3A
:1028900006D0FFE70498C068B0F5E06F01D1FFE70C
:1028A00008E048F61760C0F6000040F2AD3102F0D3
:1028B000F9FFFFE743F60801C4F20201086820F4BB
:1028C000E060049AD26810430860FFE7049800783B
:1028D0000007002833D5FFE704980069C0B1FFE77F
:1028E00004980069B0F5806F12D0FFE70498006982
:1028F000B0F5A06F0CD0FFE704980069B0F5C06F89
:1029000006D0FFE704980069B0F5E06F01D1FFE75A
:1029100008E048F61760C0F600004FF46D7102F051
:10292000C1FFFFE743F60801C4F20201086820F482
:102930006050049A126940EAC2000860FFE700F0A4
:102940004FF843F60801C4F202010968C9B20A0946
:1029500048F2BC51C0F60001895CC84040F2001149
:10296000C2F20001086040F27870C2F20000006814
:10297000FFF782FC8DF807009DF807008DF817001F
:10298000FFE79DF8170006B080BD000040F2001080
:10299000C2F200000068704780B5FFF7F7FF43F60A
:1029A0000801C4F202010968C1F3022248F2CC51C5
:1029B000C0F60001895CC84080BD000080B5FFF70B
:1029C000E5FF43F60801C4F202010968C1F3C2221F
:1029D00048F2CC51C0F60001895CC84080BD0000BF
:1029E00080B588B043F60800C4F202000068079082
:1029F000079800F00C00014601910C284CD8019971
:102A0000DFE801F0494A4A4A074A4A4A0D4A4A4A17
:102A1000130042F20040C0F2F40002904BE043F297
:102A20000060C0F26E10029045E00798C0F3834149
:102A300048F2D450C0F60000405C0690079800F4BD
:102A40004001012000EB9150059043F60800C4F2CC
:102A500002000068C00300280DD5FFE7069843F286
:102A60000061C0F26E11A0FB0101059A0023FDF781
:102A7000F7FB04900CE0069842F20041C0F2F4012A
:102A8000A0FB0101059A0023FDF7EAFB0490FFE794
:102A9000049802900FE0FFE743F60400C4F202003E
:102AA000006880B2400B03900398411C01208840CD
:102AB000C0030290FFE7029808B080BD80B588B0DF
:102AC0000690069828B9FFE701208DF81F0000F056
:102AD000A8BD0698006800B3FFE706980078C00715
:102AE000D8B9FFE70698006800F00200022814D069
:102AF000FFE70698006800F0080008280DD0FFE7FF
:102B00000698006800F00400042806D0FFE7069845
:102B10000078C006002801D5FFE708E048F61760F6
:102B2000C0F600004FF4A87102F0BCFEFFE743F6C8
:102B30000800C4F20200016801F00C010391006872
:102B400000F48030029006980078C007002800F05A
:102B5000B780FFE70698406850B1FFE706984068E5
:102B6000012805D0FFE706984068052801D1FFE756
:102B700008E048F61760C0F6000040F2591102F074
:102B800091FEFFE70398082809D0FFE703980C2877
:102B900018D1FFE70298B0F5803F13D1FFE743F665
:102BA0000000C4F2020000688003002809D5FFE796
:102BB0000698406828B9FFE701208DF81F0000F053
:102BC00030BD7CE0FFE706984068012809D1FFE7A7
:102BD00043F60001C4F20201086840F48030086046
:102BE00031E00698406868B9FFE743F60001C4F297
:102BF0000201086820F480300860086820F4802012
:102C000008601FE00698406805280DD1FFE743F6ED
:102C10000001C4F20201086840F4802008600868DE
:102C200040F4803008600CE043F60001C4F2020179
:102C3000086820F480300860086820F4802008606C
:102C4000FFE7FFE7FFE7FFE706984068D8B1FFE737
:102C5000FFF752FA0590FFE743F60000C4F20200C6
:102C60000068800300280DD4FFE7FFF745FA0599B7
:102C7000401A652805D3FFE703208DF81F0000F0F8
:102C8000D0BCE9E71AE0FFF737FA0590FFE743F613
:102C90000000C4F202000068800300280DD5FFE7A1
:102CA000FFF72AFA0599401A652805D3FFE70320A4
:102CB0008DF81F0000F0B5BCE9E7FFE7FFE7FFE78D
:102CC000069800788007002840F1A180FFE7069869
:102CD000C06828B1FFE70698C068012801D1FFE766
:102CE00008E048F61760C0F600004FF4C67102F025
:102CF000D9FDFFE7069800691F2801D8FFE708E023
:102D000048F61760C0F6000040F28D1102F0CAFDCF
:102D1000FFE70398042807D0FFE703980C2824D185
:102D2000FFE7029808BBFFE743F60000C4F2020089
:102D30000068800700280AD5FFE70698C0680128C8
:102D400005D0FFE701208DF81F0000F06ABC43F6B4
:102D50000401C4F20201086820F4F850069A1269CE
:102D600040EA02200860FFE750E00698C06860B3C0
:102D7000FFE70021C4F2472101200860FFF7BCF9FA
:102D80000590FFE743F60000C4F2020000688007E8
:102D900000280DD4FFE7FFF7AFF90599401A032883
:102DA00005D3FFE703208DF81F0000F03ABCE9E7E8
:102DB00043F60401C4F20201086820F4F850069AB0
:102DC000126940EA022008601FE00021C4F2472196
:102DD00000200860FFF790F90590FFE743F6000038
:102DE000C4F202000068800700280DD5FFE7FFF756
:102DF00083F90599401A032805D3FFE703208DF8CE
:102E00001F0000F00EBCE9E7FFE7FFE7FFE70698C9
:102E10000078C006002840F17981FFE70398002878
:102E200040F0C880FFE743F60000C4F202000068EB
:102E30008005002808D5FFE70698806920B9FFE7DC
:102E400001208DF81F00ECE30698C069FF2801D827
:102E5000FFE708E048F61760C0F6000040F2D7111F
:102E600002F020FDFFE70698006A20B3FFE706980E
:102E7000006AB0F5005F1ED0FFE70698006AB0F563
:102E8000804F18D0FFE70698006AB0F5C04F12D007
:102E9000FFE70698006AB0F5004F0CD0FFE70698F0
:102EA000006AB0F5204F06D0FFE70698006AB0F53B
:102EB000404F01D1FFE708E048F61760C0F6000078
:102EC0004FF4EC7102F0EEFCFFE70698006A43F65F
:102ED0000401C4F20201096801F4604188421ED96C
:102EE000FFE70698006A00F08DFF20B1FFE70120A0
:102EF0008DF81F0095E343F60401C4F2020108684F
:102F000020F46040069A126A10430860086820F0B6
:102F10007F40069AD26940EA026008601DE043F6ED
:102F20000401C4F20201086820F46040069A126AA3
:102F300010430860086820F07F40069AD26940EA92
:102F4000026008600698006A00F05CFF20B1FFE7AD
:102F500001208DF81F0064E3FFE70698016A012055
:102F600000EB51318840C00343F60801C4F202016E
:102F70000968C9B20A0948F2BC51C0F60001895C6F
:102F8000C84040F20011C2F20001086040F27870BF
:102F9000C2F200000068FFF76FF98DF813009DF88A
:102FA000130028B1FFE79DF813008DF81F0038E3E8
:102FB000FFE7AAE00698806928B1FFE706988069D4
:102FC000012801D1FFE708E048F61760C0F60000CD
:102FD0004FF4027102F066FCFFE706988069002852
:102FE00073D0FFE72021C4F2472101200860FFF7DA
:102FF00083F80590FFE743F60000C4F20200006882
:10300000800500280CD4FFE7FFF776F80599401AF1
:10301000032804D3FFE703208DF81F0001E3EAE74C
:103020000698C069FF2801D8FFE708E048F6176056
:10303000C0F600004FF4077102F034FCFFE7069879
:10304000006A20B3FFE70698006AB0F5005F1ED063
:10305000FFE70698006AB0F5804F18D0FFE70698A2
:10306000006AB0F5C04F12D0FFE70698006AB0F5CD
:10307000004F0CD0FFE70698006AB0F5204F06D04D
:10308000FFE70698006AB0F5404F01D1FFE708E07E
:1030900048F61760C0F6000040F21D2102F002FC65
:1030A000FFE743F60401C4F20201086820F460401F
:1030B000069A126A10430860086820F07F40069A5A
:1030C000D26940EA026008601EE02021C4F2472174
:1030D00000200860FFF710F80590FFE743F60000B6
:1030E000C4F202000068800500280CD5FFE7FFF756
:1030F00003F80599401A032804D3FFE703208DF84D
:103100001F008EE2EAE7FFE7FFE7FFE70698007897
:103110000007002858D5FFE70698406928B1FFE767
:1031200006984069012801D1FFE708E048F61760DA
:10313000C0F600004FF40F7102F0B4FBFFE70698F1
:10314000406900B3FFE740F28061C4F247210120EB
:103150000860FEF7D1FF0590FFE743F63400C4F2A4
:1031600002000068800700280CD4FFE7FEF7C4FFC8
:103170000599401A032804D3FFE703208DF81F00A8
:103180004FE2EAE71FE040F28061C4F247210020ED
:103190000860FEF7B1FF0590FFE743F63400C4F284
:1031A00002000068800700280CD5FFE7FEF7A4FFA7
:1031B0000599401A032804D3FFE703208DF81F0068
:1031C0002FE2EAE7FFE7FFE70698007840070028CC
:1031D00040F1F080FFE700208DF807000698806836
:1031E00050B1FFE706988068012805D0FFE70698F0
:1031F0008068052801D1FFE708E048F61760C0F6AF
:1032000000004FF41A7102F04DFBFFE743F6240073
:10321000C4F202000068C000002813D4FFE7FFE7F3
:1032200043F62400C4F20200016841F080510160BD
:10323000006800F0805000900098FFE701208DF8B2
:103240000700FFE747F20000C4F200000068C00575
:10325000002822D4FFE747F20001C4F20001086809
:1032600040F480700860FEF747FF0590FFE747F2E3
:103270000000C4F200000068C00500280CD4FFE77D
:10328000FEF73AFF0599401A652804D3FFE70320AB
:103290008DF81F00C5E1EAE7FFE7FFE706988068C1
:1032A000012809D1FFE743F63401C4F2020108689E
:1032B00040F48070086031E00698806868B9FFE7E4
:1032C00043F63401C4F20201086820F480700860FB
:1032D000086820F4806008601FE006988068052870
:1032E0000DD1FFE743F63401C4F20201086840F44F
:1032F00080600860086840F4807008600CE043F665
:103300003401C4F20201086820F480700860086883
:1033100020F480600860FFE7FFE7FFE7FFE706981B
:103320008068E0B1FFE7FEF7E7FE0590FFE743F6B0
:103330003400C4F202000068800500280ED4FFE7C4
:10334000FEF7DAFE0599401A41F28931884204D32A
:10335000FFE703208DF81F0063E1E8E71BE0FEF7BD
:10336000CBFE0590FFE743F63400C4F2020000688C
:10337000800500280ED5FFE7FEF7BEFE0599401A2E
:1033800041F28931884204D3FFE703208DF81F0002
:1033900047E1E8E7FFE79DF80700012809D1FFE7CB
:1033A00043F62401C4F20201086820F0805008604E
:1033B000FFE7FFE70698406A50B1FFE70698406ACA
:1033C000012805D0FFE70698406A022801D1FFE7EF
:1033D00008E048F61760C0F600004FF42B7102F0C9
:1033E00061FAFFE70698406A002800F01681FFE7BF
:1033F00003980C2800F0E380FFE70698406A022853
:1034000040F0BD80FFE70698806A30B1FFE706987C
:10341000806AB0F5803F01D1FFE708E048F6176009
:10342000C0F6000040F2B52102F03CFAFFE7069832
:10343000C06A80B3FFE70698C06AB0F5802F2AD033
:10344000FFE70698C06AB0F5002F24D0FFE7069882
:10345000C06AB0F5402F1ED0FFE70698C06AB0F5ED
:10346000801F18D0FFE70698C06AB0F5A01F12D0E1
:10347000FFE70698C06AB0F5C01F0CD0FFE70698BA
:10348000C06AB0F5E01F06D0FFE70698C06AB0F545
:10349000001F01D1FFE708E048F61760C0F6000002
:1034A00040F2B62102F0FEF9FFE70698006BB0F596
:1034B000800F0CD0FFE70698006BB0F5000F06D028
:1034C000FFE70698006BB0F5400F01D1FFE708E079
:1034D00048F61760C0F6000040F2B72102F0E2F9AA
:1034E000FFE76021C4F2472100200860FEF704FED8
:1034F0000590FFE743F60000C4F202000068800177
:1035000000280CD5FFE7FEF7F7FD0599401A0328C0
:1035100004D3FFE703208DF81F0082E0EAE743F6BB
:103520000801C4F20201086820F47D00069B9A6A33
:10353000D3F82CC01B6B42EA0C021A4310430860FC
:103540006021C4F2472101200860FEF7D5FD0590F7
:10355000FFE743F60000C4F2020000688001002883
:103560000CD4FFE7FEF7C8FD0599401A032804D3E1
:10357000FFE703208DF81F0053E0EAE71EE060211B
:10358000C4F2472100200860FEF7B6FD0590FFE772
:1035900043F60000C4F202000068800100280CD548
:1035A000FFE7FEF7A9FD0599401A032804D3FFE7BA
:1035B00003208DF81F0034E0EAE7FFE72CE00698CF
:1035C000406A012804D1FFE701208DF81F0028E0A0
:1035D00043F60800C4F2020000680290029800F46A
:1035E00080300699896A884210D1FFE7029800F47A
:1035F00070100699C96A884208D1FFE7029800F462
:1036000040000699096B884204D0FFE701208DF83D
:103610001F0006E0FFE7FFE7FFE700208DF81F002F
:10362000FFE79DF81F0008B080BD000080B582B0A4
:1036300001900198042803D0FFE7019808B9FFE73B
:1036400008E048F65260C0F6000040F2D11102F0E6
:1036500029F9FFE70198042809D1FFE74EF210018C
:10366000CEF20001086840F00400086008E04EF265
:103670001001CEF20001086820F004000860FFE7A6
:1036800002B080BD80B582B00190019800F038FC96
:1036900002B080BD80B582B00090009820B9FFE7ED
:1036A00001208DF8070058E00098006843F60001FB
:1036B000C4F20101884224D0FFE70098006844F278
:1036C0000041C4F2000188421BD0FFE70098006867
:1036D00044F60001C4F20001884212D0FFE70098CE
:1036E000006844F60041C4F20001884209D0FFE7B7
:1036F0000098006845F20001C4F20001884201D13F
:10370000FFE708E048F64970C0F6000040F29A2151
:1037100002F0C8F8FFE70099242081F83D000098E6
:103720000168C86820F40050C860009800F020F9D3
:10373000009900200864009981F83D00009981F803
:103740003E0000990863FFE70099002081F83C00E3
:10375000FFE700208DF80700FFE79DF8070002B0A3
:1037600080BD000083B0029000200190009002987C
:1037700090F83D000190029890F83E0000909DF86E
:1037800004009DF80010084303B0704780B582B074
:103790000090009820B9FFE701208DF80700E3E0D2
:1037A00000988069002846D0FFE70098006843F63B
:1037B0000001C4F20101884212D0FFE700980068BE
:1037C00044F20041C4F20001884209D0FFE70098AA
:1037D000006844F60001C4F20001884201D1FFE70D
:1037E00008E048F64970C0F6000040F26B1102F0A4
:1037F00059F8FFE70098806990B1FFE70098806969
:10380000B0F5807F0CD0FFE700988069B0F5007FAD
:1038100006D0FFE700988069B0F5407F01D1FFE74F
:1038200008E048F64970C0F600004FF4B67102F0A7
:1038300039F8FFE737E00098006843F60001C4F26A
:103840000101884224D0FFE70098006844F200415B
:10385000C4F2000188421BD0FFE70098006844F6DC
:103860000001C4F20001884212D0FFE7009800680E
:1038700044F60041C4F20001884209D0FFE70098F5
:10388000006845F20001C4F20001884201D1FFE75F
:1038900008E048F64970C0F600004FF4B87102F035
:1038A00001F8FFE7FFE70098806830B1FFE7009874
:1038B0008068B0F5805F01D1FFE708E048F6497005
:1038C000C0F600004FF4B97101F0ECFFFFE700987B
:1038D000C06930B1FFE70098C069B0F5004F01D171
:1038E000FFE708E048F64970C0F6000040F27311A7
:1038F00001F0D8FFFFE7009890F83D0040B9FFE7DE
:103900000099002081F83C00009800F05FF8FFE784
:103910000099242081F83D0000980168C86820F4CF
:103920000050C860009800F089FB009801680869A1
:1039300020F49040086100980168486920F02A004E
:10394000486100980168C86840F40050C860009958
:1039500000200864009A202182F83D10009A82F825
:103960003E108DF80700FFE79DF8070002B080BD0C
:1039700080B582B001900198006844F20041C4F221
:103980000001884220D1FFE743F62401C4F202017E
:10399000086820F4003008600020C4F202000090A3
:1039A0000421FDF71FFF00980821FDF71BFF43F6D8
:1039B0001C01C4F20201086820F0010008600868D8
:1039C00020F001000860FFE702B080BD10B590B0A4
:1039D0000F900F98006844F20041C4F20001884241
:1039E00056D1FFE7FFE743F61C00C4F2020001686E
:1039F00041F001010160006800F0010009900998A0
:103A0000FFE7FFE743F61C00C4F20200016841F043
:103A100001010160006800F0010008900898FFE7CC
:103A200004200A90022006900B90012001900C9037
:103A3000032002900D90072003900E900020C4F206
:103A4000020004900AA90591FEF726F8DDF804C0EB
:103A5000029B039A04980599DDF818E008240A945B
:103A6000CDF82CE0CDF830C00D930E92FEF714F88F
:103A7000FFE743F62400C4F20200016841F400317C
:103A80000160006800F4003007900798FFE7FFE747
:103A900010B010BDFFE7FEE780B584B003900020B2
:103AA0008DF80B0040F27C70C2F20000006844F216
:103AB0006D71C0F60001884215D1FFE7039800F050
:103AC0002BF878B1FFE740F27C70C2F20000019061
:103AD000006802F0B3FB019944F26D70C0F600007B
:103AE0000860FFE713E040F27C70C2F2000000685B
:103AF00002F0A6FE50B1FFE740F27C70C2F2000077
:103B0000006802F09BFB8DF80B00FFE7FFE79DF8D4
:103B10000B0004B080BD000080B58AB00990002081
:103B20008DF82300099909788DF8221009994978B0
:103B30008DF821100999496807910999097A8DF83A
:103B40001B1005900490FFE7049948F25060C0F6FE
:103B5000000000EB0110808880B1FFE7049948F273
:103B60005060C0F6000000EB011081880598084401
:103B70000590FFE7049801300490E5E7002008B9BC
:103B8000FFE702E003F082FEFFE740F27C70C2F242
:103B90000000006844F26D71C0F6000188426CD1EB
:103BA000FFE79DF8212007989DF822309DF81BC063
:103BB0006946C1F808C04B60086040F27C70C2F2F0
:103BC00000000021012303F08BF830B1FFE705204E
:103BD0008DF8230003F054FC4EE040F27C70C2F2FA
:103BE0000000006844F29971C0F6000102F090FFF5
:103BF00030B1FFE705208DF8230003F041FC13E00E
:103C000040F27C70C2F20000006844F62931C0F630
:103C1000000102F0A3FF30B1FFE705208DF823007B
:103C200003F02EFCFFE7FFE740F27C70C2F20000D9
:103C3000006844F61D01C0F6000102F0DBFF30B160
:103C4000FFE705208DF8230003F01AFC13E040F293
:103C50007C70C2F20000006844F61111C0F6000149
:103C600002F0A2FF30B1FFE705208DF8230003F03A
:103C700007FCFFE7FFE7FFE705E005208DF82300DD
:103C800003F0FEFBFFE79DF823000AB080BD0000B3
:103C9000FFE7FEE77047000081B08DF803009DF953
:103CA000031001F01F02012090404A094EF28011DA
:103CB000CEF2000141F8220001B0704781B08DF8CA
:103CC00003009DF9031001F01F02012090404A09F2
:103CD0004EF20011CEF2000141F8220001B070470F
:103CE00088B0079006910592079800F007000490AD
:103CF0000498C0F10700052803D3FFE704200190D2
:103D000004E00498C0F107000190FFE701980390D8
:103D100004980430062803D8FFE70020009003E051
:103D2000049803380090FFE70098029006980399E2
:103D3000012202FA01F101390840029B98400599DD
:103D40009A40013A1140084308B070474EF60C50B3
:103D5000CEF200000068C0F30220704782B08DF8F8
:103D6000070000919DF90700B0F1FF3F0CDCFFE771
:103D7000009800019DF8071001F00F014EF6145253
:103D8000CEF20002885409E0009800019DF9071066
:103D90004EF20042CEF200028854FFE702B07047B4
:103DA00083B00290029800F0070000904EF60C518C
:103DB000CEF200010868019001984FF6FF02104012
:103DC00001900198009A40EA02200022C0F2FA52C3
:103DD000104301900198086003B07047BFF34F8F04
:103DE0004EF60C51CEF20001086800F4E0600422A7
:103DF000C0F2FA5210430860BFF34F8FFFE700BFD5
:103E0000FDE7000085B003900020019043F6080014
:103E1000C4F20200006810F0F00F40D1FFE743F653
:103E20002400C4F202000068C000002809D5FFE7A2
:103E300047F20000C4F20000006800F4C050029095
:103E40001FE0FFE743F62400C4F20200016841F0DE
:103E500080510160006800F0805000900098FFE7FA
:103E600047F20000C4F20000006800F4C050029065
:103E700043F62401C4F20201086820F08050086073
:103E8000FFE70298B0F5C05F08D1FFE70398B0F5EF
:103E9000404F03D1FFE701200190FFE7FFE7FFE775
:103EA0000198012809D1FFE743F60041C4F202015D
:103EB000086840F004000860FFE743F60041C4F2E0
:103EC0000201086820F00100019A10430860FFE732
:103ED00043F60040C4F20200006800F001000199BE
:103EE000884204D0FFE701208DF8130003E0002092
:103EF0008DF81300FFE79DF8130005B07047000030
:103F000080B582B0009000980138B0F1807F03D373
:103F1000FFE70120019019E0009801384EF21401EA
:103F2000CEF2000108604FF0FF300F21FFF716FFBF
:103F30004EF21801CEF20001002008604EF210028D
:103F4000CEF20002072111600190FFE7019802B054
:103F500080BD000080B5FEF769F903F003FE03F0B1
:103F600037FB80BD80B594B001218DF84F10022041
:103F70000690099110210A910F9000201090119045
:103F80004FF48000129006A8FEF798FD38BBFFE7BB
:103F90000F200190032002900020039004900590D0
:103FA00001A80121FEF79AFA20B9FFE700208DF859
:103FB0004F00FFE7FEF7EAFC44F6D351C1F262017D
:103FC000A0FB01108009FFF75DFB0420FFF72EFB2B
:103FD0004FF0FF3006210022FEF722FAFFE79DF89E
:103FE0004F0014B080BD000043F60002C4F202028C
:103FF000106840F48070106043F60801C4F20201BA
:1040000008684CF20C03C8F6FF03184008601068FB
:104010004FF6FE73CEF6FE6318401060106820F471
:1040200080201060086820F47D00086043F60C01D1
:10403000C4F20201002008607047000080B584B01F
:1040400003900398406840F60011C0F23D01884299
:1040500001D8FFE708E048F64970C0F6000040F6D6
:104060004A6101F01FFCFFE70398C06830B1FFE729
:104070000398C068B0F5005F01D1FFE708E048F69B
:104080004970C0F6000040F64B6101F00BFCFFE701
:104090000398006960B1FFE703980069B0F5806F8D
:1040A00006D0FFE703980069B0F5C06F01D1FFE7C4
:1040B00008E048F64970C0F6000040F64C6101F097
:1040C000F1FBFFE70398808A6FF00C01084205D1ED
:1040D000FFE70398406908B1FFE708E048F6497038
:1040E000C0F6000040F64D6101F0DCFBFFE70398ED
:1040F0000068006920F44050039A1168D2681043A8
:104100000861039988680B694A69C96918431043B3
:104110000843029003980068C06849F20C61884324
:104120000299084303990968C860039800684069C8
:1041300020F44070039A1168926910434861039813
:10414000006843F60001C4F20101884204D1FFE790
:10415000FEF734FC019003E0FEF71EFC0190FFE740
:104160000398C069B0F5004F24D1FFE701981921E9
:104170004843039A116852685200B0FBF2FE48F2BD
:104180001F53C5F2EB13AEFB0320420910014FF0A1
:10419000640C02FB1CEC322202EBCC02A2FB0332C9
:1041A000F82303EA521300EB4300C2F34212104417
:1041B000886021E0019819214843039A11685268E8
:1041C0009200B0FBF2FC48F21F52C5F2EB12ACFBBE
:1041D00002304309642003FB10CC322000EB0C10AA
:1041E000A0FB0202F02000EA521000EB0310C2F321
:1041F000431210448860FFE704B080BD80B582B0F0
:10420000FCF798FA01460191012808D0FFE70198D0
:10421000022807D0FFE70198032806D00DE003F03D
:1042200005FA0DE003F0D6F90AE040F6D011C2F22B
:10423000000108680130086002E003F027FBFFE797
:1042400002B080BDFFE7FEE780B501F011FB80BD45
:1042500080B501F015FB80BD80B501F019FB80BD74
:1042600080B500F0CBFD00F00DFD80BD83B0029065
:1042700002990888498808440138ADF80600029878
:10428000418800200129009014DBFFE70298018893
:1042900082880020914200900CDBFFE7BDF80610F9
:1042A000029A9088D288024400209142B8BF01202F
:1042B0000090FFE7009800F0010003B07047000095
:1042C00080B58CB00B908DF82B1000208DF82A0053
:1042D0000B9A1188528811440139ADF828100B9AB5
:1042E00011889288891AADF82610BDF826100B9A0D
:1042F000528811440139ADF824108DF8230007903D
:1043000006909DF82B000146019120B1FFE701982E
:10431000012857D0A3E0BDF82600C0080690BDF8DC
:10432000260000F007000790FFE7BDF82600BDF863
:104330002410884242DCFFE7BDF8260000F00700A9
:1043400005900B988168C0680078059A079BD31A7E
:1043500001229A401040BDF8262051F82210087022
:10436000BDF82600411C0698B0EBD10F0ADAFFE732
:10437000002007900698013006900B99C86801301C
:10438000C860FFE70B988068BDF8261050F8210040
:1043900000F05EF9049050B1FFE7049880478DF873
:1043A0002A0018B1FFE703F06BF8FFE7FFE7FFE72C
:1043B000BDF826000130ADF82600B6E700208DF8E4
:1043C0002A0052E0BDF8260000F007000790BDF873
:1043D0002600C0080390FFE7BDF82600BDF82410B2
:1043E000884238DCFFE7BDF8260000F007000290A5
:1043F0000B988068BDF8261050F82100007800F076
:1044000001000299079A891A00FA01F19DF8230028
:1044100008438DF82300BDF82600411C0398B0EB3B
:10442000D10F11DAFFE70398013003909DF82300C4
:104430000B99C96808700B99C8680130C8600020E2
:104440008DF823000790FFE7FFE7BDF82600013055
:10445000ADF82600C0E700208DF82A0005E0012015
:104460008DF82A0003F00CF8FFE79DF82A000CB045
:1044700080BD000080B588B048F6C030C0F60000AE
:1044800000680C30069048F6C430C0F600000068A2
:104490000C30059006980021049104A901F0C8F998
:1044A00048B1FFE7069880880438B0FA80F04009E8
:1044B0008DF81F0060E00598006828B1FFE70598B7
:1044C0000068013020B9FFE701208DF81F0053E09C
:1044D0000020039048F6C430C0F600000068006970
:1044E0004CF20401401A43F6FB71C0F20701884206
:1044F0000BD8FFE748F6C430C0F60000006800693A
:104500004CF20401401A019005E043F6FC70C0F241
:1045100007000190FFE70198029003984CF2000118
:10452000C0F600014FF4806200F0B2FD03900398E2
:104530000299A1F5A0624CF20051C0F6000100F012
:10454000A7FD039003984FF6F871C0F6070100919C
:104550000431042200F09CFD01460098039100689C
:104560000399884204D0FFE701208DF81F0003E083
:1045700000208DF81F00FFE79DF81F0008B080BDE8
:1045800083B00290002001900090FFE7009820285F
:1045900026D8FFE7029800990A0148F25061C0F658
:1045A00000018958884216D1FFE7009948F250600F
:1045B000C0F6000000EB0110806858B1FFE70099D9
:1045C00048F25060C0F6000000EB011080680068FF
:1045D0000190FFE704E0FFE7009801300090D5E785
:1045E000019803B07047000083B002900020019052
:1045F0000090FFE70098202826D8FFE7029800994E
:104600000A0148F25061C0F600018958884216D16B
:10461000FFE7009948F25060C0F6000000EB01107F
:10462000C06858B1FFE7009948F25060C0F600003A
:1046300000EB0110C06800680190FFE704E0FFE7AD
:10464000009801300090D5E7019803B07047000052
:1046500083B00290002001900090FFE700980628A8
:1046600026D8FFE7029800990A0148F2E051C0F607
:1046700000018958884216D1FFE7009948F2E050BE
:10468000C0F6000000EB0110C06858B1FFE70099C8
:1046900048F2E050C0F6000000EB0110C06800686E
:1046A0000190FFE704E0FFE7009801300090D5E7B4
:1046B000019803B07047000080B584B072B64CF228
:1046C0000400C0F60000006802900298013018B99A
:1046D000FFE700F04DF8FFE740F6D810C2F2000007
:1046E0000078BFF35F8FC007A8B9FFE740F6D81086
:1046F000C2F2000003F060F868B1FFE7029841F6EB
:104700001021C2F20001086040F6D810C2F2000089
:1047100003F080F8FFE74CF20000C0F600000168EB
:1047200001914EF60851CEF2000108600198039005
:10473000039880F3088841F61020C2F20000006858
:10474000804704B080BD000081B000900A2001B015
:104750007047000083B0029044F65260C3F25710D5
:10476000019001980090009803B0704770470000D6
:10477000BFF34F8F4EF60C51CEF20001086800F4E3
:10478000E0600422C0F2FA5210430860BFF34F8F7A
:10479000FFE700BFFDE7000080B588B00790ADF8E7
:1047A0001A10ADF818208DF8173000208DF816007B
:1047B000BDF81A00ADF80400BDF81800ADF8060009
:1047C00041F60840C2F200000088ADF8080040F24F
:1047D0006C70C2F200000088ADF80A0040F25C7014
:1047E000C2F20000006803900798049001A8FFF748
:1047F0003DFD40B1FFE79DF8171001A8FFF760FDF0
:104800008DF8160005E002208DF8160002F038FE43
:10481000FFE79DF8160008B080BD000080B584B0A9
:104820000390ADF80A10ADF8082002208DF80700BB
:10483000BDF80A00BDF8081008440138ADF80400BE
:10484000BDF80A0041F60E41C2F200010A88801A42
:10485000ADF80200BDF804000988401AADF8000068
:10486000BDF80800012845DBFFE7BDF80A0041F666
:104870000E41C2F20001098888423BDBFFE7BDF828
:10488000040041F60E41C2F20001098840F2727242
:10489000C2F200021288114488422BDAFFE7FFE7D8
:1048A000BDF80200BDF8001088421FDCFFE740F2AF
:1048B0006870C2F200000168BDF8022051F82210B1
:1048C0004978039A531C039311700068BDF80210D5
:1048D00050F82100008803994A1C03920870FFE7F2
:1048E000BDF802000130ADF80200D9E700208DF8D4
:1048F000070002E002F0C4FDFFE79DF8070010B1D9
:10490000FFE700BFFFE79DF8070004B080BD00008F
:1049100080B588B00790ADF81A10ADF818208DF862
:10492000173000208DF81600BDF81A00BDF81810D9
:1049300008440138ADF81400BDF81A0041F60C41E6
:10494000C2F200010A88801AADF81200BDF8140006
:104950000988401AADF81000BDF818000128C0F20F
:10496000D380FFE7BDF81A0041F60C41C2F2000106
:1049700009888842C0F2C880FFE7BDF8140041F6FC
:104980000C41C2F20001098840F27072C2F20002CA
:1049900012881144884280F2B780FFE79DF8170023
:1049A0000146019120B1FFE7019801284FD0A7E00F
:1049B000FFE7BDF81200BDF81010884224DCFFE7C5
:1049C00007980078010240F26470C2F200000268A9
:1049D000BDF8123052F82320118007990131079158
:1049E00007990A780068BDF8121050F8211008885D
:1049F00010430880079801300790FFE7BDF81200C8
:104A00000130ADF81200D4E7BDF81A0041F60C41B0
:104A1000C2F200010988401AADF8120040F2647039
:104A2000C2F200000068BDF8121050F82100FFF734
:104A3000DBFD039050B1FFE7039880478DF8160027
:104A400018B1FFE702F01CFDFFE7FFE75BE0BDF8F0
:104A50001A0041F60C41C2F200010988401AADF873
:104A6000120040F26470C2F200000068BDF812103B
:104A700050F82100FFF784FD029088B1FFE702990A
:104A8000BDF81000BDF81220801A400080B288479F
:104A90008DF8160018B1FFE702F0F2FCFFE7FFE720
:104AA0009DF8160040BBFFE7FFE7BDF81200BDF818
:104AB000101088421FDCFFE740F26470C2F2000071
:104AC0000168BDF8122051F822104978079A531C4A
:104AD000079311700068BDF8121050F8210000888B
:104AE00007994A1C07920870FFE7BDF812000130D1
:104AF000ADF81200D9E702E002F0C2FCFFE702E0E5
:104B000002F0BEFCFFE705E002F0BAFC02208DF8DF
:104B10001600FFE79DF8160010B1FFE700BFFFE7A2
:104B20009DF8160008B080BD80B588B00790ADF83C
:104B30001A10ADF8182000208DF81700BDF81A00E3
:104B4000ADF80400BDF81800ADF8060041F60A40C3
:104B5000C2F200000088ADF8080040F26E70C2F2A8
:104B600000000088ADF80A0040F26070C2F2000058
:104B7000006803900798049001A8FFF777FB38B10D
:104B8000FFE701A80121FFF79BFB8DF8170005E067
:104B900002208DF8170002F073FCFFE79DF8170064
:104BA00008B080BD81B00090009801B0704700004F
:104BB00080B584B0039040F28061C4F247210120A7
:104BC000086048F2B052C0F600021068516892685E
:104BD0000292019100906846FDF794FA58B1FFE700
:104BE00048F6C570C0F6000049F21F01C0F600018A
:104BF0005C22FBF7ADFB72B6FDF76CFC04B080BD28
:104C000080B588B0079007980390FDF775FA059076
:104C100041F61420C2F200000068B0B1FFE7039A29
:104C2000059841F61421C2F200010968401A049067
:104C30000498116889684843506004981168926824
:104C40008968891A4843069007E00A20002100F08D
:104C500001FE039906904860FFE7059841F614218C
:104C6000C2F2000108600698019001200021029123
:104C700000F0F0FD024601980B460299FBF7F0FAAE
:104C800008B080BD80B58AB009900998059040F6BB
:104C9000BC11C2F2000108910068808801460691AB
:104CA000062800F290800699DFE801F0048D8D8DD2
:104CB0000A1C7E0005980168043100F0EBF88DE0D5
:104CC00005980021816040F6BC12C2F200025180BA
:104CD0000A2111800421ADF81E100DF11E0100F013
:104CE000D9F87BE005980168043100F0D3F8059805
:104CF000816801318160FFF783FF0146059840F626
:104D0000BC12C2F200020492118001680091806816
:104D100003F0F4FB03F0C6FB002203920023C4F26D
:104D2000240303F0D3F902460098019202918068AF
:104D300003F0B9F9024601980B46029903F02AF8EC
:104D4000039A0023C3F6E07302F07CFF03F07CF9C2
:104D5000049A0146059851800168C96800F074F80A
:104D600008B3FFE70598006800F1140100698DF8A9
:104D70001D000DF11D02084600F0A8F80598026814
:104D800002F11401D068126900F0D0FA05980268A7
:104D900002F11400D168126900F07CFB10B9FFE742
:104DA00000BFFFE7FFE719E005980168043100F054
:104DB00071F8059840F6BC12C2F200020021118081
:104DC000FFF7F6FE0AE048F6C570C0F6000049F2AB
:104DD0001F01C0F600013E22FBF7BAFA00200AB01C
:104DE00080BD000081B000900098016844F261200D
:104DF000C0F60000C1F8940001B0704780B540F6DD
:104E0000DC10C2F200000078BFF35F8FC007A8B9C2
:104E1000FFE740F6DC10C2F2000002F0CDFC68B102
:104E2000FFE741F61820C2F2000000F029F840F632
:104E3000DC10C2F2000002F0EDFCFFE741F61820A2
:104E4000C2F2000080BD000083B002900191019980
:104E500000204CF20002C0F60002914200900AD3FA
:104E6000FFE701990022C0F608020020914238BFF6
:104E700001200090FFE7009800F0010003B07047A8
:104E800081B00090009840F20001C2F20001016080
:104E900001B0704782B00190009101980099098893
:104EA0000268D18002B0704780B584B0039002914F
:104EB000039801900298FFF74DFC014601980268A3
:104EC000116002680121918004B080BD80B584B07A
:104ED00003900291019200200090FFE70098019951
:104EE000097888420EDAFFE70398009900EB410049
:104EF00000F052F80299009A8854FFE700980130B8
:104F00000090EBE704B080BD80B584B003900291BF
:104F1000019200200090FFE70098019988420ED28C
:104F2000FFE703980299097800F00CF80390FFE777
:104F3000009801300090029801300290ECE703984D
:104F400004B080BD83B002908DF8071002989DF8E0
:104F500007104840029000200090FFE700980728C3
:104F600017DCFFE79DF80800C00748B1FFE702998A
:104F700048F22030CEF6B85080EA5100029003E0AB
:104F8000029840080290FFE7FFE700980130009088
:104F9000E4E7029803B0704784B0039000208DF8D6
:104FA0000B008DF80A008DF809000190FFE70198C9
:104FB00001285EDCFFE703980199405C30280DDB97
:104FC000FFE703980199405C392807DCFFE73020B0
:104FD0008DF80A0000208DF8090032E0039801994D
:104FE000405C41280DDBFFE703980199405C4628AF
:104FF00007DCFFE741208DF80A000A208DF8090040
:105000001EE003980199405C61280DDBFFE70398DF
:105010000199405C662807DCFFE761208DF80A00F3
:105020000A208DF809000AE048F6C570C0F60000B5
:1050300049F24801C0F600013522FBF789F9FFE784
:10504000FFE703980199405C9DF80A20801A9DF8BB
:1050500009201044C1F10101890000FA01F19DF815
:105060000B0008438DF80B00FFE701980130019019
:105070009DE79DF80B0004B07047000080B582B03A
:1050800001900198009000F04BF9009802B080BDAB
:1050900080B58AB00990089107920898069040F66A
:1050A0000421C2F2000104A800F074FBFFE7079896
:1050B00038B3FFE707990020B0EB113F03D1FFE7BA
:1050C0000798039003E04FF480500390FFE70398A4
:1050D00005900699059A40F60C20C2F20000029055
:1050E00000F086F902990998059AFFF70DFF0990DB
:1050F000059906980844069005990798401A079064
:10510000D5E70998019004A800F052FB01980AB075
:1051100080BD000080B58AB009900891099820F000
:10512000FF00099000208DF81F0004900998059059
:1051300004A8083002900898B0F5807F03D9FFE7F3
:105140000898019003E04FF480700190FFE7029906
:105150000198000A08600020039043F61841C4F249
:1051600002014FF410600860FCF7EAFA8DF81F00A6
:1051700018B1FFE702F084F9FFE704A803A9FCF7E0
:105180009DF98DF81F0018B1FFE702F079F9FFE7EC
:10519000FCF760FA8DF81F0018B1FFE702F070F914
:1051A000FFE743F61841C4F202014FF410600860B3
:1051B0000AB080BD80B5D0B04F904E914D92002086
:1051C0008DF833014E9845904F98449040F6082151
:1051D000C2F2000103A800F0DDFA44984990499812
:1051E00020F0FF0048904898469044984699401A0D
:1051F00047904798C0F580704D99884205D2FFE7E7
:105200004798C0F58070029002E04D980290FFE749
:1052100002984A90469904A800904FF48072019237
:10522000FBF7F0F800984799084445994A9AFBF72C
:10523000E9F801994898FFF76DFF0099019A48989D
:1052400000F006F803A800F0B3FA50B080BD0000EB
:1052500080B58AB009900891079200208DF81B0054
:10526000089805900998049040F60821C2F20001C0
:1052700003A800F08FFAFCF763FA8DF81B0018B151
:10528000FFE702F0FDF8FFE7FFE70798D0B3FFE77D
:105290000798022808D1FFE70120009005980088B0
:1052A00002900220019014E00798042808D3FFE739
:1052B000022000900598006802900420019007E009
:1052C0000020009005980078029001200190FFE7EF
:1052D000FFE700980499029AFCF7C6F98DF81B00C5
:1052E00018B1FFE702F0CCF8FFE701990798401AE0
:1052F000079001990598084405900199049808447D
:105300000490C2E7FCF7A6F98DF81B0018B1FFE77F
:1053100002F0B6F8FFE703A800F04AFA0AB080BD31
:1053200081B00090009801B07047000080B584B053
:10533000039002910192029808B1FFE70AE048F653
:10534000C170C0F6000048F6FA71C0F600011C22D8
:10535000FAF7FEFF03984CF20041C0F600018842C4
:105360000ED3FFE703984CF21F41C0F600018842BC
:1053700006D8FFE703980299019AFFF71BFF35E073
:1053800003980021C0F6080188420FD3FFE7039875
:105390002321C0F60801884208D8FFE700F0A6F8EC
:1053A0000399029A019B00F0E7F81EE00398B0F120
:1053B000006F0ED3FFE703984FF6FE71C0F60701AA
:1053C000884206D8FFE703980299019AFFF740FF49
:1053D0000AE048F6C570C0F6000048F6FA71C0F65B
:1053E00000012422FAF7B4FFFFE7FFE704B080BD15
:1053F00080B584B0039002910192039808B1FFE751
:105400000AE049F21B00C0F6000048F6FA71C0F647
:1054100000010D22FAF79CFF0298B0F1006F0ED345
:10542000FFE702984FF6FE71C0F60701884206D8E2
:10543000FFE703980299019AFAF7E4FF27E0029840
:105440000021C0F60801884215D3FFE70298232106
:10545000C0F6080188420ED8FFE702980021CFF27B
:10546000F8710844029000F041F80299039A019BF8
:1054700000F062F80AE048F6C570C0F6000048F691
:10548000FA71C0F600011422FAF762FFFFE704B0D8
:1054900080BD000086B004900391029203980190B1
:1054A00000200090FFE700980299884216D2FFE79B
:1054B0000498007801990978401A20B1FFE700208C
:1054C0008DF817000EE0FFE7009801300090049877
:1054D00001300490019801300190E4E701208DF83B
:1054E0001700FFE79DF8170006B0704780B540F63B
:1054F000E010C2F200000078BFF35F8FC007A8B9C8
:10550000FFE740F6E010C2F2000002F055F968B182
:10551000FFE741F62420C2F2000000F0B7F840F6A1
:10552000E010C2F2000002F075F9FFE741F6242016
:10553000C2F2000080BD000080B588B007900691DF
:10554000059204930799059803900B20029001A8F7
:10555000009000F0ABF80098BDF81A108DF8091013
:105560000699090A8DF80A1006998DF80B1000F0BB
:10557000CBF808B080BD000080B590B00F900E91C0
:105580000D920C930F9902910D980B9008A800F0C2
:105590008DF8FFE70C98002872D0FFE702990E986B
:1055A00089684A42104008440A900A980E990C9A59
:1055B0001144884205D2FFE70A980E99401A0990D3
:1055C00002E00C980990FFE7099807900E98069062
:1055D000FFE70798002846D0FFE70798052803D380
:1055E000FFE70420019002E007980190FFE701988F
:1055F00005900020049003900598022806D1FFE74B
:10560000012003900B980088049012E0059804286C
:1056100006D1FFE7022003900B980068049007E092
:1056200001200590002003900B9800780490FFE77C
:10563000FFE7FBF71FFF03980E99FBF7F9FD0398AF
:105640000699049AFBF766FEFBF75AFE0599079840
:10565000401A0790059906980844069005990B98FA
:1056600008440B90B5E709990C98401A0C900999D9
:105670000E9808440E9009990B9808440B9089E7FE
:1056800008A800F041F810B080BD000081B0009083
:105690000098002101604FF48071816001B0704773
:1056A00081B00090009801B07047000080B586B0CE
:1056B000049003910499019105910398086003985F
:1056C0000068B8B9FFE70020029002A801F04AFF85
:1056D00001460198026811600068006808B1FFE7A0
:1056E00007E048F6CB70C0F600003D2100F0E8F876
:1056F000FFE706E0039800684FF0FF3101F03EFF3E
:10570000FFE7059806B080BD80B584B0029002988E
:10571000019003900068006808B1FFE707E048F6D1
:10572000CB70C0F60000412100F0CAF8FFE70198F5
:105730000068006801F01CFF039804B080BD000001
:1057400080B584B003900398019000680068B8B9F0
:10575000FFE70020029002A801F0F2FE0146019846
:10576000026811600068006808B1FFE707E048F6CA
:10577000CB70C0F60000172100F0A2F8FFE707E0A9
:105780000198006800684FF0FF3101F0E5FEFFE787
:1057900004B080BD80B584B003900291039801905D
:1057A00002990160FFF7CCFF019804B080BD0000B2
:1057B00080B584B002900298019003900068006860
:1057C00008B1FFE707E048F6CB70C0F600001B21E8
:1057D00000F076F8FFE701980068006801F0B6FE77
:1057E000039804B080BD000080B586B0049003919A
:1057F0000498019000680021029102A900F018F8B5
:1058000060B1FFE701980068808803990988401A11
:10581000B0FA80F040098DF8170004E0FFE700209F
:105820008DF81700FFE79DF8170006B080BD000057
:1058300080B584B0039002910398006801900298AB
:10584000FEF788FF01460198401AB0FA80F040093F
:1058500004B080BD82B001910090009801994EF68D
:105860006022A0FB020301FB023102B0704700007E
:1058700080B54FF6F870C0F60700FFF793F980BDCA
:1058800080B540F20000C0F60800FFF7F7FB80BDCE
:1058900080B54CF20040C0F60000FFF701FF80BD6C
:1058A000FAF717FE80B5C2B0419040914199684621
:1058B0004FF48072FAF7A6FDFFE700BFFDE7000096
:1058C00080B582B00190009101980099FFF7EAFF3E
:1058D00002B080BD80B584B00390029100208DF8A5
:1058E00007000398009001F0E1FF0098D8B1FFE7AE
:1058F0000098027841F63021C2F2000101EB42012A
:10590000884210D1FFE70098407858B1FFE70120A6
:105910008DF80700009840780299087000990020DF
:105920004870FFE7FFE702F011F89DF8070004B0A8
:1059300080BD000082B00190019900200090A9B1C3
:10594000FFE7019841780020009079B9FFE70198BE
:10595000417841F63043C2F20003342201FB0231A8
:10596000401AB0FA80F040090090FFE7009800F07C
:10597000010002B07047000080B584B003900120A0
:105980008DF80B000398019001F090FF01980069D9
:105990000090009890F8040108B9FFE702E001F0D8
:1059A00075FFFFE7009890F80101012824D1FFE777
:1059B0000098D0F81001002100F0EAFA8DF80A00F2
:1059C0009DF80A0008B9FFE702E001F05FFFFFE77A
:1059D0000099002081F801010198C068012100F0C0
:1059E00051F98DF80A009DF80A0008B9FFE702E0B6
:1059F00001F04CFFFFE704E00099002081F801016D
:105A0000FFE701F0A3FF9DF80B0004B080BD00008C
:105A100080B586B00590049100208DF80F008DF8B8
:105A20000E000598029001F041FF02980069019074
:105A3000019890F8010108B9FFE702E001F026FFA4
:105A4000FFE7019890F80401012801D1FFE702E087
:105A500001F01CFFFFE7019890F8040101281ED116
:105A6000FFE70198B0F80601012813DBFFE7019A70
:105A7000D2F80801411CC2F8081100780499087096
:105A80000199B1F806010138A1F8060101208DF84D
:105A90000F0003E001208DF80E00FFE700E0FFE7B4
:105AA0009DF80F0068B9FFE7FFE70199002081F832
:105AB00004010199A1F806010199C1F80801FFE765
:105AC00000E0FFE79DF80E00C0B1FFE70198D0F8B5
:105AD000140100F08DFB80B1FFE70298C06802213D
